:100000007CC0F9C195C094C093C092C091C090C00B
:100010008FC08EC08DC08CC08BC08AC079C488C090
:1000200087C086C085C0040309041E0377007700DB
:1000300077002E0031003000310030002E006300C8
:100040006F002E0075006B001403780078007800B4
:10005000780078002D006100760072001201100116
:1000600000000008C016DB270001010200010902A0
:100070002200010100803209040000010300000099
:100080000921010100012269000705810308000A16
:1000900005010904A1010930150026FF03750A9521
:1000A0000181020931150026FF03750A95018102BD
:1000B0000932150026FF03750A95018102093315DF
:1000C0000026FF03750A950181020934150026FFF9
:1000D00003750A950181020935150026FF03750A8B
:1000E00095018102050919012904150025017501F1
:1000F0009504550065008102C00011241FBECFE5A4
:10010000D4E0DEBFCDBF10E0A4E6B0E0E2E3F9E06A
:1001100002C005900D92A836B107D9F710E0A8E605
:10012000B0E001C01D92A93AB107E1F709D3FFC3BE
:1001300067CF85B7836085BF8BB780648BBF83EC47
:1001400080937E0008950F931F93CF93DF93909138
:100150008E0019160CF0B7C020918B0080918A0098
:100160008D3209F0A6C08AE5809365009B3009F0C6
:10017000A0C0CCE0D0E0C21BD109CE56DF4F8881B1
:10018000807609F088C010927C008981882359F418
:1001900010927D008CE790E090938D0080938C000E
:1001A00090E822E07FC0853021F48A8180938F001F
:1001B00070C0863009F052C08B81813049F48CE5E3
:1001C00090E090938D0080938C0090EC22E16AC0C7
:1001D000823049F48EE690E090938D0080938C00FD
:1001E00090EC22E25FC0833019F58A81882349F4BC
:1001F00086E290E090938D0080938C0090EC24E058
:1002000051C0813049F48AE290E090938D00809350
:100210008C0090EC2EE146C0823009F041C088E4A9
:1002200090E090938D0080938C0090EC24E13AC094
:10023000813249F480E890E090938D0080938C00A7
:1002400090EC29E02FC0823259F580E990E090933C
:100250008D0080938C0090EC29E624C0883019F43E
:1002600081E990E00AC0893021F48A81809391006D
:1002700010C08A3049F48CE790E090938D00809311
:100280008C0090E821E00EC08B3019F483EC809351
:100290007E0090E806C0CE010AD2282F90E802C066
:1002A00090EC20E08F81882339F48E81821728F02A
:1002B00003C090E880E001C0822F90936800809393
:1002C000640010928E008091650084FF49C0809187
:1002D00064008F3F09F444C0182F893008F018E0FB
:1002E000811B809364008091680080FD02C00BE454
:1002F00001C003EC8F5F8093680020918C003091E7
:100300008D0086FD05C0D901912FE4E7F0E011C012
:10031000A4E7B0E080E090E006C0F901E80FF91F23
:10032000E491ED9301961817C1F705C08D91819363
:1003300091509923D9F7F901E10FF11DF0938D0048
:10034000E0938C0084E790E0612F51D0183019F0D1
:100350008FEF80936400009373001C5F109365001F
:100360009AE080B3887131F49150D9F710928F00E0
:1003700010928900DF91CF911F910F9108951F93E3
:10038000DC01162F8091660084FF0AC080917E00F8
:1003900098E8892780937E00912FEFE7F0E007C06F
:1003A0008AE580936600F8CF8D91819391509923CF
:1003B000D9F78FE790E0612F1AD01C5F1093660089
:1003C0001F910895A82FB92F80E090E041E050EAF6
:1003D00060956F5F58F42D9138EF82279795879538
:1003E00010F0842795273F5FC8F3F3CF0895EADF25
:1003F0008D939D930895CF93CFB7CF93839BFECFDB
:10040000839B09C0839B07C0839B05C0839B03C05C
:10041000839B01C0A3C0DF93C0918B00DD27CE5624
:10042000DF4F839B02C0DF91EBCF2F930F931F937E
:1004300000B32FEF03FB20F94F933F9310B34FEF1F
:10044000012703FB21F93BE031C04E7F012F10B3A0
:10045000216028C0102F4D7F2260000000B329C00A
:100460004B7F2460012F000010B32BC010B3477FD7
:1004700028602AC04F7E00B320612CC04F7D10B38E
:1004800020622FC04F7B00B3206432C0422700B3EC
:1004900049934FEF0000102713FB20F910B3187198
:1004A000C9F1297F91F2012703FB21F900B3237FD2
:1004B00089F2315058F1102713FB22F910B3277E2F
:1004C00079F2012703FB23F92F7C81F200B3102777
:1004D00013FB24F92F7971F200C010B3012703FB3D
:1004E00025F92F7359F200C000B3102713FB26F92A
:1004F000223040F200C010B3012703FB27F924305B
:1005000028F64F77206810B30000F9CF10E41ABF27
:10051000002719C03B503195C31BD04010E41ABFCF
:100520000881033CF9F00B34E9F02091890019812E
:10053000110F1213EDCF4A81441F093641F10D32DC
:1005400011F0013E29F7009390003F914F911F91C8
:100550000F912F91DF91CAB7C6FD50CFCF91CFBF7A
:10056000CF91189500919000002379F310918E009F
:100570001123A1F53430A2F130938E0000938A004C
:1005800010918B003BE0311B30938B0029C0009110
:100590008E0001301CF50AE54F7049F4309165007A
:1005A00034FD20C000936500C3E7D0E01FC0309148
:1005B000660034FD17C000936600CEE7D0E016C099
:1005C000052710E002BB1FC0052722C0052727C052
:1005D00005272CC0052710E002BB33C04AE503C045
:1005E00042ED01C0432FC4E1D0E032E011B3186105
:1005F000939A02B311BB5F9358E120E820FF0527CF
:1006000002BB279517951C3FD8F620FF0527279595
:1006100002BB17951C3FC0F620FF052727951795AD
:1006200002BB1C3F98F620FF0527279517951C3F16
:1006300002BB70F600C0499120FF052702BB279539
:1006400017951C3F38F620FF0527279502BB179505
:100650001C3F38F520FF05272795179502BB1C3F47
:1006600010F520FF0527279517951C3F02BBE8F4DE
:10067000242F3A9519F6077E5F9102BB10918F00E7
:10068000110FC651D04011F01093890010E41ABF29
:10069000086011B3177E402F477E02BB11BB42BBDF
:1006A00054CF0527D3CF0527D8CF0527DDCFFC01B1
:1006B0008AE690E090938D0080938C008081807614
:1006C0009181803229F5913091F410926A00109254
:1006D0006B0010926C0010926D0010926E001092E0
:1006E0006F00109270001092710088E008959230AF
:1006F00041F482E790E090938D0080938C0081E03C
:1007000008959A30D9F483818093720080E008952F
:100710009E30A1F4F8941BBE15BE81E08BBF82E031
:100720008BBF87E791E1AAEAB5E5809360009093DB
:100730006100A0936200B0936300FFCF80E0089552
:10074000EF92FF921F93DF93CF93CDB7DEB76497FD
:100750000FB6F894DEBF0FBECDBF17BA8FE088BBCF
:1007600083E082BB8FEF81BB81E08BBF1BBE109209
:1007700060001092610010926200109263002EE0FF
:1007800088E190E00FB6F894A89581BD0FBE21BD19
:1007900080EE81BB85E083BF74D0CBDC7894FE0112
:1007A00039968CE0DF011D928A95E9F710E07E0111
:1007B0000894E11CF11CA895C6DC812F8FD0E12F95
:1007C000F0E0EE0FFF1FEE0DFF1D918780871F5F8A
:1007D000163008F010E089859A8589832B853C8541
:1007E000822F880F880F890F8A834D855E85842F1D
:1007F0008295807F66E0369527956A95E1F7820FAE
:100800008B838F859889282F2295220F220F207C99
:1008100034E0569547953A95E1F7240F2C83969549
:100820008795969587958D8389899A898E834B893B
:100830005C89842F880F880F890F8F8380B390B3D2
:1008400026B336B391708270890F8295880F880F16
:10085000807C22702295207F820F3470330F330FFB
:10086000830F96E0569547959A95E1F74F70840F60
:1008700088878091660084FF9ECFC70168E07FDD96
:100880009ACF379A359886B1887F866086B987B1C6
:100890008F73806487B93D98339A1092A80078943A
:1008A000089533983798089596B1987F982B96B904
:1008B000089597B18295880F880F807C9F73982B3D
:1008C00097B9089597B18F71907E892B87B9089554
:1008D000349A369A089586B1807408951092A800CB
:1008E00097B18F71907E892B87B9349A369A369951
:1008F000FECF24B145B1942F80E030E0282B392B76
:10090000C9010895EBDF969587959695879508958B
:100910001F920F920FB60F9211248F938FEF809337
:10092000A8008F910F900FBE0F901F901895F8940C
:02093000FFCFF7
:04093200FF5A5A000E
:00000001FF
