:1000000048C06DC161C060C05FC05EC05DC05CC003
:100010005BC05AC059C058C057C056C055C054C024
:1000200053C052C051C0EAC2F8C2FCC229C328C39F
:10003000EDC20FC318C31FC323C322C321C3CAC247
:10004000040309041E037700770077002E003100B7
:100050003000310030002E0063006F002E0075006C
:100060006B000C036200790072006F006E001201D9
:100070001001FF000008C016D8270001010200018E
:10008000090212000101008096090400000000002E
:10009000000011241FBECFE5D4E0DEBFCDBF10E0CD
:1000A000A4E6B0E0E2E5F8E002C005900D92A636C5
:1000B000B107D9F710E0A6E6B0E001C01D92A13B60
:1000C000B107E1F76DD3C3C39BCF85B7826085BF0E
:1000D0008BB780648BBF08951F93CF93DF9390916C
:1000E0009700935097FD87C02091940080919300D2
:1000F0008D3209F07EC0983009F07BC0CCE0D0E0B2
:10010000C21BD109C556DF4F83EC809387008AE577
:1001100080936400109266008881807621F0CE0181
:100120004BD2282F5DC09A8110929000898188233C
:1001300021F41092910022E04DC0853019F4909383
:10014000980047C08630B1F58B81813019F48EE676
:1001500090E004C0823041F480E890E090939600F3
:100160008093950022E122C08330F9F48A818823AC
:1001700041F480E490E0909396008093950024E011
:1001800015C0813041F484E490E090939600809310
:1001900095002EE10BC0823041F482E690E090930E
:1001A0009600809395002CE001C020E080E48093CD
:1001B000660016C0883021F421E08AE990E00CC086
:1001C000893019F490939A0004C08A3011F421E028
:1001D00001C020E080E990E0909396008093950024
:1001E0008F81882321F48E81821708F4282F209391
:1001F0006500109297008091640084FF49C080914F
:1002000065008F3F09F444C0182F893008F018E0CA
:10021000811B809365008091870098E889278093EF
:100220008700112341F12091950030919600809133
:10023000660086FF0DC0A8E8B0E080E090E0F9011C
:10024000E80FF91FE491ED9301961817C1F708C064
:10025000912FD901E8E8F0E08D9181939150E1F779
:100260001150812F90E01F5F0196820F931F909392
:1002700096008093950088E890E0612F2CD0612F44
:100280006C5F6C3019F08FEF8093650060936400B1
:1002900094E180B3887131F49150D9F710929800AD
:1002A00010929200DF91CF911F910895A82FB92F3E
:1002B00080E090E041E050EA609530E009C02D9187
:1002C00082279795879510F084279527305EC8F38D
:1002D0006F5FA8F30895EADF8D939D930895CF9300
:1002E000CFB7CF93C395839BE9F7839B09C0839BCB
:1002F00007C0839B05C0839B03C0839B01C0A1C033
:10030000DF93C0919400DD27C556DF4F839B02C069
:10031000DF91EBCF2F930F931F9300B32FEF03FBCE
:1003200020F94F933F9310B34FEF012703FB21F9BF
:100330003BE031C04E7F012F10B3216028C0102F49
:100340004D7F2260000000B329C04B7F2460012F45
:10035000000010B32BC010B3477F28602AC04F7E27
:1003600000B320612CC04F7D10B320622FC04F7BA3
:1003700000B3206432C0422700B349934FEF00001E
:10038000102713FB20F910B31871C9F1297F91F2DE
:10039000012703FB21F900B3237F89F2315058F183
:1003A000102713FB22F910B3277E79F2012703FBF4
:1003B00023F92F7C81F200B3102713FB24F92F7946
:1003C00071F200C010B3012703FB25F92F7359F216
:1003D00000C000B3102713FB26F9223040F200C002
:1003E00010B3012703FB27F9243028F64F77206844
:1003F00010B30000F9CF10E41ABF002717C03B501C
:100400003195C31BD04010E41ABF0881033CE9F0CA
:100410000B34D9F0209192001981110F1213EDCFF6
:10042000093641F10D3211F0013E39F70093990080
:100430003F914F911F910F912F91DF91CAB7C6FD48
:1004400051CFCF91CFBFCF91189520919900222302
:1004500079F310919700112311F5343012F1309394
:10046000970020939300109194003BE0311B309350
:10047000940017C00091970001308CF40AE5309188
:10048000640034FD10C000936400C7E8D0E00FC0E2
:100490002795A8F45150A9F4220F0000F9CF4AE59E
:1004A00003C042ED01C0432FC4E1D0E032E011B3FC
:1004B0001861939A11BB02B320E418E15F930127FE
:1004C00056E002BB279520F4515021F4220FF9CFBA
:1004D000012756E000003B5A02BBD0F2279528F4D2
:1004E000515029F4220F0000F9CF012756E027953B
:1004F00002BB20F4515021F4220FF9CF012756E01E
:100500002991332302BB21F6077E10919800110F29
:10051000C651D04002BB11F01093920010E41ABFF4
:10052000086011B3177E402F477E5F9100C000C066
:1005300002BB11BB42BB7CCF26B130E086E03695D2
:1005400027958A95E1F72095309521703070C90183
:10055000089524B145B1942F80E030E0282B392B49
:10056000C901089524B145B1942F80E030E0282BD3
:10057000392B3595279535952795C901089597B15C
:100580008F71907E892B87B90895349A369A089591
:1005900082B3877E82BB81B3886181BB81B3877E52
:1005A00081BB0895379A86B1887F866086B93E9A66
:1005B0003F98359833980895CF93DF93EC01898164
:1005C00090E0FC013297ED30F10508F059C0ED5E86
:1005D000FF4F0994F8941BBE15BE81E08BBF82E0EB
:1005E0008BBF87E791E1AAEAB5E58093600090931D
:1005F0006100A0936200B0936300FFCF8AE790E0B0
:1006000090939600809395008CE03BC08A81803166
:1006100008F08FE08093780033C0B89881B38F7171
:1006200081BB2EC0B89A81B3806E81BB98B32A81FA
:10063000822F81709E7F892B88BB92B3822F8695F3
:100640008295880F807E9F71892B82BB20938300C7
:1006500017C02A81822F90E09BBD8ABD209386001F
:10066000209382000DC08A81809382008A8190E06D
:1006700099BD88BD05C08A81809382008A8183BD2F
:1006800080E0DF91CF910895B89922C066B340B35E
:1006900080B320B350E04072507090E0807490704E
:1006A000842B952B54E0969587955A95E1F770E049
:1006B00061707070860F971F30E02078307044E0D2
:1006C000359527954A95E1F7820F931F8093830014
:1006D00008950F931F93809179008F3F49F08A30DE
:1006E00010F48F5F02C051DF8FEF8093790055C007
:1006F00023DF892B09F451C02CDF40916700042FC0
:1007000010E060917800F801EE0FFF1FE859FF4FED
:1007100070E020813181D9016A9F90016B9F300D7B
:100720007A9F300D11246F5F7F4F820F931F7BD014
:100730009B0171836083F801E658FF4FCB019695CA
:10074000879596958795808346954695E42FF0E0AA
:10075000A80143705070440F551F83E090E0042EB1
:1007600002C0880F991F0A94E2F7EC57FF4F02C0AE
:10077000220F331F4A95E2F7382F322380952081CC
:100780008223382B30830F5F1F4F07701070009348
:100790006700802FF4DE109279001F910F91089569
:1007A00081E08BBF1BBE109260001092610010921E
:1007B00062001092630014BA15BA2EE088E190E04E
:1007C0000FB6F894A89581BD0FBE21BD7EDC8B9A33
:1007D00020E048EB5BE004C0A895CA010197F1F75F
:1007E0002150D1F78B987894DDDE81EA8FBD85E0CA
:1007F0008EBD8EE087BB8FEF87BB85B5806485BDDE
:1008000085B5877F85BD85B5826085BD85B58F7EC1
:1008100085BD85B5806285BD1DBC1CBC5DDC59DF16
:1008200033DFA895FBCFAA1BBB1B51E107C0AA1F52
:10083000BB1FA617B70710F0A61BB70B881F991F81
:100840005A95A9F780959095BC01CD010895F8942B
:02085000FFCFD8
:020852005AFF4B
:00000001FF
