:100000003BC0A5C154C053C052C051C050C04FC026
:100010004EC04DC04CC04BC04AC049C048C047C08C
:1000200046C045C044C0040309041C0377007700A0
:1000300077002E00660069007300630068006C00A2
:100040002E00640065000E0355005300420061005D
:100050007300700012011001FF000008C016DC05DB
:1000600002010102000109021200010100801909C8
:10007000040000000000000011241FBECFE5D4E002
:10008000DEBFCDBF10E0A4E6B0E0EEECFDE002C0C4
:1000900005900D92A636B107D9F710E0A6E6B0E0BC
:1000A00001C01D92A73AB107E1F76DD48EC6A8CF63
:1000B00085B7836085BF8BB780648BBF08950F932E
:1000C0001F93CF93DF9360918B0016160CF0AEC098
:1000D00080918800CCE0D0E0C81BD109C157DF4F28
:1000E0006350809187008D3209F083C08AE5809348
:1000F0006500683009F090C08881807609F066C09C
:10010000109284008981882359F41092850084E834
:1001100090E090938A008093890090E822E062C08A
:10012000853021F48A8180938C00EAC08630B9F54D
:100130008B81813019F484E590E004C0823049F469
:1001400086E690E090938A008093890090EC22E10B
:1001500049C0833009F0D6C08A81882349F486E2F9
:1001600090E090938A008093890090EC24E03AC05C
:10017000813049F48AE290E090938A00809389006C
:1001800090EC2CE12FC0823009F0BCC086E490E0F6
:1001900090938A008093890090EC2EE023C08830F1
:1001A00019F48EE890E00BC0893021F48A818093A5
:1001B0008E00A6C08A3009F0A3C084E890E0909336
:1001C0008A008093890090E821E00CC0CE01D7D44A
:1001D000282F8F3F31F4888187FD2E81822F90E078
:1001E0001FC090E88F818823D1F48E818217C0F0E0
:1001F00016C08091660087FD0FC0CE01EAD38F3F05
:1002000021F48EE18093650004C0882311F090E012
:1002100004C090E08FEF04C090E880E001C0822F1E
:10022000909366008093640010928B00809165002B
:1002300084FF5BC0809164008F3F09F456C0182F83
:10024000893008F018E0811B80936400809166007B
:1002500080FD02C00BE401C003EC8F5F8093660059
:1002600087FF26C02091890030918A0086FD05C055
:10027000D901912FECE7F0E011C0ACE7B0E080E0ED
:1002800090E006C0F901E80FF91FE491ED930196A3
:100290001817C1F705C08D91819391509923D9F713
:1002A000F901E10FF11DF0938A00E093890009C084
:1002B000112339F08CE790E0612F1CD4182F89307E
:1002C00060F48CE790E0612F3ED0912F9C5F183056
:1002D00041F08FEF8093640004C08FEF809364003F
:1002E0009EE100937B00909365009AE080B3887153
:1002F00061F49150D9F710928C001092860005C0DD
:1003000090E801C090EC20E06DCFDF91CF911F917C
:100310000F910895A82FB92F8FEF9FEF41E050EA7A
:10032000615070F02D9138E0722F7827969587955F
:10033000269570FF02C0842795273A95A9F7F0CF3C
:10034000809590950895E6DF8D939D930895CF93C2
:10035000CFB7CF93839BFECF839B09C0839B07C0FE
:10036000839B05C0839B03C0839B01C09EC0DF931A
:10037000C0918800DD27C157DF4F839B02C0DF910A
:10038000EBCF2F930F931F9300B32FEF03FB20F9B5
:100390004F933F9310B34FEF012703FB21F93BE04D
:1003A00031C04E7F012F10B3216028C0102F4D7F28
:1003B0002260000000B329C04B7F2460012F0000A1
:1003C00010B32BC010B3477F28602AC04F7E00B304
:1003D00020612CC04F7D10B320622FC04F7B00B333
:1003E000206432C0422700B349934FEF000010272A
:1003F00013FB20F910B31871A9F1297F91F201279D
:1004000003FB21F900B3237F89F23150F0F110276B
:1004100013FB22F910B3277E79F2012703FB23F99E
:100420002F7C81F200B3102713FB24F92F7971F28E
:1004300000C010B3012703FB25F92F7359F200C048
:1004400000B3102713FB26F9223040F200C010B38E
:10045000012703FB27F9243028F64F77206810B3D3
:100460000000F9CF3B503195333010E41ABFB8F09B
:10047000C31BD0400881033C41F10B3431F1198199
:10048000412F1F7720918600121731F4093691F120
:100490000D3279F0013E69F0222720938D003F91C3
:1004A0004F911F910F912F91DF91CF91CFBFCF919E
:1004B000189500938D003F914F911F910F912F91AF
:1004C000DF91CAB7C6FD46CFF0CF00918D00002363
:1004D00031F310918B00112349F534304AF13093F8
:1004E0008B0000938700109188003BE0311B309314
:1004F00088001EC000918B000130C4F40AE53091E1
:10050000650034FD17C000936500CBE7D0E016C04E
:10051000052710E002BB1FC0052722C0052727C002
:1005200005272CC0052710E002BB33C04AE503C0F5
:1005300042ED01C0432FC4E1D0E032E011B31861B5
:10054000939A02B311BB5F9358E120E820FF05277F
:1005500002BB279517951C3FD8F620FF0527279546
:1005600002BB17951C3FC0F620FF0527279517955E
:1005700002BB1C3F98F620FF0527279517951C3FC7
:1005800002BB70F600C0499120FF052702BB2795EA
:1005900017951C3F38F620FF0527279502BB1795B6
:1005A0001C3F38F520FF05272795179502BB1C3FF8
:1005B00010F520FF0527279517951C3F02BBE8F48F
:1005C000242F3A9519F6077E5F9102BB00C0109167
:1005D0008C00C651D04011F01093860010E41ABF71
:1005E000086011B3177E402F477E02BB11BB42BB90
:1005F00056CF0527D3CF0527D8CF0527DDCF82E5F6
:100600008DB981E08EB90895882319F48BE393E0C6
:1006100002C089E593E09093A6008093A500089519
:1006200092B782B7891B8C30E0F3089587B38C6250
:1006300087BBC298C59892B782B7891B8C30E0F30C
:10064000C29A92B782B7891B8C30E0F3C29880912E
:10065000A5009091A6008955934021F482E58DB9BB
:1006600081E08EB9089587B3837D87BB88B3837D8E
:1006700088BB1DB80895482F20E030E047FF02C036
:10068000C39A01C0C398220FB4992F5FC59A92B73D
:1006900082B7891B8C30E0F3C59892B782B7891B6B
:1006A0008C30E0F33F5F383011F0440FE7CF822FFA
:1006B00008958FB9779BFECF8FB10895EF92FF9287
:1006C0000F931F9300E282E5E82EFF24F39433C0DA
:1006D000E091A500F091A6008CEA0995E091A500B3
:1006E000F091A60083E50995E091A500F091A600A0
:1006F00080E00995182FE091A500F091A60080E018
:100700000995133511F480E019C01DB8C59A92B748
:1007100082B7891B8C30E0F3C59892B782B7891BEA
:100720008C30E0F38091A5009091A600895593400C
:1007300011F4EDB8FEB8015058F681E01F910F9109
:10074000FF90EF900895EF92FF920F931F937B011C
:100750008C01862F8170880F880F880FE091A5008B
:10076000F091A60080620995D801C70129E0B695ED
:10077000A795979587952A95D1F7E091A500F091D7
:10078000A600099516950795F794E794E091A500C2
:10079000F091A6008E2D0995E091A500F091A6009C
:1007A00080E009951F910F91FF90EF9008950F93AE
:1007B0001F938C01E091A500F091A60080EA0995B5
:1007C000E091A500F091A600812F0995E091A50088
:1007D000F091A600802F0995E091A500F091A60068
:1007E00080E009951F910F910895FF920F931F9339
:1007F0008C01F62EE091A500F091A60080EC099501
:10080000E091A500F091A600812F0995E091A50047
:10081000F091A600802F0995E091A500F091A60027
:100820008F2D09958EE1A3D080E01F910F91FF904D
:100830000895CF92DF92EF92FF920F931F936B0177
:100840007C01142FE091A500F091A6008CE409959D
:10085000D701C60149E0B695A795979587954A9522
:10086000D1F7E091A500F091A6000995D701C60146
:10087000B695A79597958795E091A500F091A6006C
:100880000995E091A500F091A60080E009951F3F31
:1008900019F48FE06CD007C002B71EE1C701B601A2
:1008A00052DF8F3F11F080E008C082B7801B8D338C
:1008B000A8F302B7115091F781E01F910F91FF90BB
:1008C000EF90DF90CF900895CF92DF92EF92FF925A
:1008D0000F931F936B017C01042F122F862F8170C1
:1008E000880F880F880FE091A500F091A600806422
:1008F0000995D701C60169E0B695A79597958795A3
:100900006A95D1F7E091A500F091A6000995D7016D
:10091000C601B695A79597958795E091A500F091AA
:10092000A6000995E091A500F091A600802F0995F9
:100930001123A9F00F3719F48FE019D010C002B7B6
:100940001EE1C701B601FFDE8F3749F482B7801B75
:100950008D33B8F302B71150A1F781E001C080E0F8
:100960001F910F91FF90EF90DF90CF900895382F57
:1009700090E006C022B782B7821B8C33E0F39F5F02
:100980009317C0F3089512BA18BA11BA8FEF87BB44
:1009900017BA33E034BB8EEF85BB81E08BBF1BBE43
:1009A0001092600010926100109262001092630039
:1009B0002EE088E190E00FB6F894A89581BD0FBEB7
:1009C00021BD33BF81E020DE73DB789478DBA8950E
:1009D000FDCFFF920F931F93CF93DF939C01F62ED1
:1009E00080916700813021F4E90110E000E078C0D7
:1009F0008430D1F31FEF77C080916700813079F5A3
:100A0000809177009091780020917300309174006C
:100A10004091750050917600892B31F4CA01B901DB
:100A2000488121E051DF21C0CA01B901488120E09D
:100A30004BDF80917A00815080937A008823A9F45B
:100A400060917300709174008091750090917600B0
:100A50004881EFDE8091770080937A0006C0809114
:100A60007300909174006881C0DE8091680090915D
:100A7000690001979093690080936800892BD9F4ED
:100A8000109267008091790081FF14C080917A00F4
:100A900090E020917700309178008217930751F011
:100AA0006091730070917400809175009091760050
:100AB0004881BFDE11E08091730090917400A09195
:100AC0007500B09176000196A11DB11D8093730051
:100AD00090937400A0937500B09376000F5F2196F9
:100AE0000F1508F489CF812FDF91CF911F910F91BE
:100AF000FF9008950F931F93CF93DF939C01062FD0
:100B0000809167008250823010F00FEF32C0E9010F
:100B100010E029C080916700823051F46091730029
:100B20007091740080917500909176000CDE05C084
:100B300080917300909174003ADE888380917300F5
:100B400090917400A0917500B09176000196A11D5E
:100B5000B11D8093730090937400A0937500B093BF
:100B600076001F5F21961017A8F2083010F410923B
:100B70006700802FDF91CF911F910F910895CF9340
:100B8000DF93EC018981813059F49A9902C080E0A9
:100B900001C081E039DD10926A0048DDA9980AC1E0
:100BA000823019F460DDA99A05C1833011F5E09116
:100BB000A500F091A6008A81099580936B00E091D1
:100BC000A500F091A6008B81099580936C00E091BF
:100BD000A500F091A6008C81099580936D00E091AD
:100BE000A500F091A6008D81099580936E0024E008
:100BF000E2C0843011F580916A00882391F49B81D2
:100C000080E02A8130E0822B932BAA2797FDA095C4
:100C1000BA2F8093730090937400A0937500B093E3
:100C200076009F8180E02E8130E0822B932B909381
:100C300069008093680082E091C0873011F580914F
:100C40006A00882391F49B8180E02A8130E0822B26
:100C5000932BAA2797FDA095BA2F809373009093AA
:100C60007400A0937500B09376009F8180E02E8180
:100C700030E0822B932B909369008093680083E08F
:100C80006DC0853029F41ADD80936B0021E093C09C
:100C90008630D9F580916A00882391F49B8180E0A9
:100CA0002A8130E0822B932BAA2797FDA095BA2F9B
:100CB0008093730090937400A0937500B0937600B6
:100CC0008C819D81292F2F7020937900492F50E02E
:100CD000407F507094E0440F551F9A95E1F7480FFC
:100CE000511D509378004093770020FF02C040933D
:100CF0007A009F8180E02E8130E0822B932B9093AD
:100D000069008093680081E029C0883059F580919E
:100D10006A00882391F49B8180E02A8130E0822B55
:100D2000932BAA2797FDA095BA2F809373009093D9
:100D30007400A0937500B093760010927800109222
:100D40007700109279009F8180E02E8130E0822B25
:100D5000932B909369008093680084E080936700F0
:100D60002FEF29C0893081F481E080936A008A8165
:100D70009B81AC81BD818093730090937400A0939C
:100D80007500B093760016C08E30A1F4F8941BBEA7
:100D900015BE81E08BBF82E08BBF87E791E1AAEAB5
:100DA000B5E58093600090936100A0936200B093DA
:100DB0006300FFCF20E08BE690E090938A00809361
:0E0DC0008900822FDF91CF910895F894FFCF24
:020DCE00FF5ACA
:00000001FF
