:1000000048C06DC161C060C05FC05EC0D5C25CC089
:100010005BC05AC059C058C057C056C055C054C024
:1000200053C052C051C002C305C30EC30DC3F7C2B3
:1000300008C307C306C305C307C306C3D4C2E7C2C8
:10004000040309041E037700770077002E003100B7
:100050003000310030002E0063006F002E0075006C
:100060006B000C036200790072006F006E001201D9
:100070001001FF000008C016D8270001010200018E
:10008000090212000101008096090400000000002E
:10009000000011241FBECFE5D4E0DEBFCDBF10E0CD
:1000A000A4E6B0E0E2EEF7E002C005900D92A636BD
:1000B000B107D9F710E0A6E6B0E001C01D92A03B61
:1000C000B107E1F746D38BC39BCF85B7826085BF6D
:1000D0008BB780648BBF08951F93CF93DF9390916C
:1000E0009600935097FD87C02091930080919200D5
:1000F0008D3209F07EC0983009F07BC0CCE0D0E0B2
:10010000C21BD109C656DF4F83EC809386008AE577
:1001100080936400109266008881807621F0CE0181
:1001200055D2282F5DC09A8110928F008981882333
:1001300021F41092900022E04DC0853019F4909384
:10014000970047C08630B1F58B81813019F48EE677
:1001500090E004C0823041F480E890E090939500F4
:100160008093940022E122C08330F9F48A818823AD
:1001700041F480E490E0909395008093940024E013
:1001800015C0813041F484E490E090939500809311
:1001900094002EE10BC0823041F482E690E090930F
:1001A0009500809394002CE001C020E080E48093CF
:1001B000660016C0883021F421E089E990E00CC087
:1001C000893019F49093990004C08A3011F421E029
:1001D00001C020E08FE890E0909395008093940018
:1001E0008F81882321F48E81821708F4282F209391
:1001F0006500109296008091640084FF49C0809150
:1002000065008F3F09F444C0182F893008F018E0CA
:10021000811B809365008091860098E889278093F0
:100220008600112341F12091940030919500809136
:10023000660086FF0DC0A7E8B0E080E090E0F9011D
:10024000E80FF91FE491ED9301961817C1F708C064
:10025000912FD901E7E8F0E08D9181939150E1F77A
:100260001150812F90E01F5F0196820F931F909392
:1002700095008093940087E890E0612F2CD0612F47
:100280006C5F6C3019F08FEF8093650060936400B1
:1002900094E180B3887131F49150D9F710929700AE
:1002A00010929100DF91CF911F910895A82FB92F3F
:1002B00080E090E041E050EA609530E009C02D9187
:1002C00082279795879510F084279527305EC8F38D
:1002D0006F5FA8F30895EADF8D939D930895CF9300
:1002E000CFB7CF93C395839BE9F7839B09C0839BCB
:1002F00007C0839B05C0839B03C0839B01C0A1C033
:10030000DF93C0919300DD27C656DF4F839B02C069
:10031000DF91EBCF2F930F931F9300B32FEF03FBCE
:1003200020F94F933F9310B34FEF012703FB21F9BF
:100330003BE031C04E7F012F10B3216028C0102F49
:100340004D7F2260000000B329C04B7F2460012F45
:10035000000010B32BC010B3477F28602AC04F7E27
:1003600000B320612CC04F7D10B320622FC04F7BA3
:1003700000B3206432C0422700B349934FEF00001E
:10038000102713FB20F910B31871C9F1297F91F2DE
:10039000012703FB21F900B3237F89F2315058F183
:1003A000102713FB22F910B3277E79F2012703FBF4
:1003B00023F92F7C81F200B3102713FB24F92F7946
:1003C00071F200C010B3012703FB25F92F7359F216
:1003D00000C000B3102713FB26F9223040F200C002
:1003E00010B3012703FB27F9243028F64F77206844
:1003F00010B30000F9CF10E41ABF002717C03B501C
:100400003195C31BD04010E41ABF0881033CE9F0CA
:100410000B34D9F0209191001981110F1213EDCFF7
:10042000093641F10D3211F0013E39F70093980081
:100430003F914F911F910F912F91DF91CAB7C6FD48
:1004400051CFCF91CFBFCF91189520919800222303
:1004500079F310919600112311F5343012F1309395
:10046000960020939200109193003BE0311B309353
:10047000930017C00091960001308CF40AE530918A
:10048000640034FD10C000936400C6E8D0E00FC0E3
:100490002795A8F45150A9F4220F0000F9CF4AE59E
:1004A00003C042ED01C0432FC4E1D0E032E011B3FC
:1004B0001861939A11BB02B320E418E15F930127FE
:1004C00056E002BB279520F4515021F4220FF9CFBA
:1004D000012756E000003B5A02BBD0F2279528F4D2
:1004E000515029F4220F0000F9CF012756E027953B
:1004F00002BB20F4515021F4220FF9CF012756E01E
:100500002991332302BB21F6077E10919700110F2A
:10051000C651D04002BB11F01093910010E41ABFF5
:10052000086011B3177E402F477E5F9100C000C066
:1005300002BB11BB42BB7CCF26B130E086E03695D2
:1005400027958A95E1F72095309521703070C90183
:10055000089524B145B1942F80E030E0282B392B49
:10056000C901089524B145B1942F80E030E0282BD3
:10057000392B3595279535952795C901089597B15C
:100580008F71907E892B87B90895349A369A089591
:1005900082B3877E82BB81B3886181BB81B3877E52
:1005A00081BB0895379A86B1887F866086B93E9A66
:1005B0003F983598339808951F920F920FB60F9277
:1005C00011240F900FBE0F901F901895CF93DF93BB
:1005D000EC01898190E0FC013397ED30F105A0F545
:1005E000ED5EFF4F0994F8941BBE15BE81E08BBFF2
:1005F00082E08BBF87E791E1AAEAB5E580936000CE
:1006000090936100A0936200B0936300FFCF8AE7EC
:1006100090E090939500809394008CE016C08A81BE
:10062000803108F08FE0809378000EC081B38C7128
:1006300081BB0AC081B3836E81BB8A8180938300B2
:1006400003C08A818093820080E0DF91CF9108957A
:10065000889917C080B340B320B350E04074507005
:1006600090E080729070842B952B30E02078307071
:10067000282B392B84E0369527958A95E1F720932E
:10068000830008950F931F93809179008F3F49F065
:100690008A3010F48F5F02C078DF8FEF809379008B
:1006A00055C04ADF892B09F451C053DF40916700E0
:1006B000042F10E060917800F801EE0FFF1FE85959
:1006C000FF4F70E020813181D9016A9F90016B9FBB
:1006D000300D7A9F300D11246F5F7F4F820F931F73
:1006E0006AD09B0171836083F801E658FF4FCB010C
:1006F0009695879596958795808346954695E42FA0
:10070000F0E0A80143705070440F551F83E090E063
:10071000042E02C0880F991F0A94E2F7EC57FF4F8E
:1007200002C0220F331F4A95E2F7382F32238095FB
:1007300020818223382B30830F5F1F4F077010708A
:1007400000936700802F1BDF109279001F910F919B
:10075000089581E08BBF1BBE109260001092610073
:10076000109262001092630014BA15BA2EE088E16C
:1007700090E00FB6F894A89581BD0FBE21BDA5DC11
:100780008B9A20E048EB5BE004C0A895CA01019772
:10079000F1F72150D1F78B98789404DF1FBC82E0E9
:1007A0008EBD1DBC1CBC80E188BF89BF95DC6ADFA3
:1007B0004FDFA895FBCFAA1BBB1B51E107C0AA1FA7
:1007C000BB1FA617B70710F0A61BB70B881F991FF2
:1007D0005A95A9F780959095BC01CD010895F8949C
:0207E000FFCF49
:0207E2005AFFBC
:00000001FF
