:101800003BC06FC054C053C052C051C050C04FC045
:101810004EC04DC04CC04BC04AC049C048C047C074
:1018200046C045C044C0040309041C037700770088
:1018300077002E00660069007300630068006C008A
:101840002E00640065000E03550053004200610045
:101850007300700012011001FF000008C016DC05C3
:101860000201010200010902120001010080320997
:10187000040000000000000011241FBECFE5D4E0EA
:10188000DEBFCDBF10E0A4E6B0E0E8EDFFE102C0AE
:1018900005900D92AA36B107D9F710E0AAE6B0E09C
:1018A00001C01D92A13AB107E1F748D193C3A8CF77
:1018B000A82FB92F80E090E041E050EA609530E039
:1018C00009C02D9182279795879510F08427952739
:1018D000305EC8F36F5FA8F30895EADF8D939D93A0
:1018E0000895CF93CFB7CF93C395839BE9F7839B9D
:1018F00009C0839B07C0839B05C0839B03C0839B58
:1019000001C0A1C0DF93C0918400DD27C557DF4F20
:10191000839B02C0DF91EBCF2F930F931F9300B3F4
:101920002FEF03FB20F94F933F9310B34FEF0127A5
:1019300003FB21F93BE031C04E7F012F10B3216042
:1019400028C0102F4D7F2260000000B329C04B7FBC
:101950002460012F000010B32BC010B3477F286014
:101960002AC04F7E00B320612CC04F7D10B320628F
:101970002FC04F7B00B3206432C0422700B349938D
:101980004FEF0000102713FB20F910B31871C9F1B5
:10199000297F91F2012703FB21F900B3237F89F20C
:1019A000315058F1102713FB22F910B3277E79F23A
:1019B000012703FB23F92F7C81F200B3102713FBCF
:1019C00024F92F7971F200C010B3012703FB25F928
:1019D0002F7359F200C000B3102713FB26F92230F1
:1019E00040F200C010B3012703FB27F9243028F68A
:1019F0004F77206810B30000F9CF10E41ABF00271A
:101A000017C03B503195C31BD04010E41ABF08816A
:101A1000033CE9F00B34D9F0209182001981110FB9
:101A20001213EDCF093641F10D3211F0013E39F7B5
:101A3000009389003F914F911F910F912F91DF915A
:101A4000CAB7C6FD51CFCF91CFBFCF911895209186
:101A50008900222379F310918700112311F5343086
:101A600012F13093870020938300109184003BE0B3
:101A7000311B3093840017C00091870001308CF433
:101A80000AE53091640034FD10C000936400C7E79C
:101A9000D0E00FC02795A8F45150A9F4220F000000
:101AA000F9CF4AE503C042ED01C0432FC4E1D0E0C5
:101AB00032E011B31861939A11BB02B320E418E12C
:101AC0005F93012756E002BB279520F4515021F483
:101AD000220FF9CF012756E000003B5A02BBD0F29B
:101AE000279528F4515029F4220F0000F9CF01273F
:101AF00056E0279502BB20F4515021F4220FF9CF74
:101B0000012756E02991332302BB21F6077E10916D
:101B10008800110FC651D04002BB11F01093820013
:101B200010E41ABF086011B3177E402F477E5F9103
:101B300000C000C002BB11BB42BB7CCF88E10FB626
:101B4000F89481BD11BC0FBE80E188BB88E28A9504
:101B5000F1F781E08BBF82E08BBFB49B13C0809113
:101B6000600090916100A0916200B091630087577E
:101B70009141AA4AB54531F0E0E0F0E0E491EF3F51
:101B800009F000C285B7826085BF8BB780648BBFC8
:101B90008B9A20E005C0A89588EB9BE00197F1F7B0
:101BA0002150C9F78B987894CC24DD24909187003C
:101BB000935097FD4AC1809184000CE010E0081B0F
:101BC000110905571F4F809183008D3209F0C9C05C
:101BD000983009F038C183EC809377008AE58093D0
:101BE000640010926E00D8013C91832F807611968C
:101BF0002C911197882309F43FC08AE690E09093D6
:101C0000860080938500233091F412968C91803366
:101C100011F0E0E008C0D8011496EC91E370F0E018
:101C2000EA59FF4FE081E0936D0094E08FC02530CA
:101C300011F491E08BC0822F84508630B0F4F8010B
:101C4000828193819093710080937000293091F08C
:101C500096819093720085818270809373002093A7
:101C6000740037FD6EC02FEF6DC0223019F481E093
:101C700080936F0090E06AC0D80112968C91109208
:101C80008000222331F41092810020E830E092E0BD
:101C900053C0253019F4809388004BC02630C9F515
:101CA000F8018381813019F484E598E104C0823021
:101CB00041F486E698E1909386008093850092E156
:101CC00024C0833009F5D80112968C91882341F401
:101CD00086E298E1909386008093850094E015C099
:101CE000813041F48AE298E19093860080938500E8
:101CF0009CE10BC0823041F486E498E19093860029
:101D0000809385009EE001C090E080E480936E00A7
:101D10001DC0283019F42AE830E009C0293019F430
:101D200080938A0006C02A3021F420E830E091E058
:101D300003C020E830E090E03093860020938500D7
:101D400005C0292F80E880936E0008C0F8018781C4
:101D5000882319F42681291708F0292F209365007C
:101D600072C080916E0087FF6EC080917200F92E64
:101D7000891708F4F82E8F1980937200EE248823B7
:101D800011F4EE24E39480917400873010F430E075
:101D900053C0E8010CC080917000909171000196D1
:101DA00090937100809370000197699106D19E0114
:101DB000201B2F1580F343C0E0917000F09171005B
:101DC000CF018F739070892B49F4F89483E080934E
:101DD0005700E895789407B600FCFDCF3E5FF89475
:101DE000D8018D919D918D0121E00C012093570028
:101DF000E89511247894CF01029690937100809316
:101E000070008F739070892B41F0EE20A9F03F1580
:101E100098F080917300882379F0F89485E080939E
:101E20005700E895789407B600FCFDCFF89481E15F
:101E300080935700E89578943F1508F4BDCFEE20C5
:101E400011F010926500109287008091640084FF69
:101E500071C0809165008F3F09F46CC0182F8930E4
:101E600008F018E0811B809365008091770098E866
:101E7000892780937700112309F44AC080916E006E
:101E800087FF2AC080917200811708F4182F811BE8
:101E900080937200C8E7D0E017C080917400E09191
:101EA0007000F0917100873018F0CF017ED001C032
:101EB00084918883219680917000909171000196A1
:101EC0009093710080937000812F90E088589F4F0D
:101ED000C817D90711F71AC0E0918500F091860064
:101EE00086FF09C0912FA8E7B0E084918D933196C9
:101EF0009150D9F707C0912FA8E7B0E081918D9359
:101F00009150E1F7F0938600E0938500193060F47A
:101F100088E790E0612FE1DC612F6C5F6C3041F06D
:101F20008FEF8093650004C08FEF809365006EE1B2
:101F30006093640094E180B3887131F49150D9F7D3
:101F4000109288001092820080916F00882321F007
:101F5000CA9411F4DA94B1F0B49B28CE8091600059
:101F600090916100A0916200B09163008757914108
:101F7000AA4AB54509F41ACEE0E0F0E0E491EF3F5B
:101F800009F414CEF894109260001092610010923F
:101F90006200109263001BBE15BE81E08BBF1BBEAA
:101FA000E0917500F09176000995E199FECF9FBB15
:101FB0008EBBE09A99278DB30895262FE199FECF25
:101FC0009FBB8EBB2DBB0FB6F894E29AE19A0FBE71
:081FD00001960895F894FFCF7B
:061FD8005AFF1E930700F2
:0400000300001800E1
:00000001FF
